{"abi":[{"type":"constructor","inputs":[],"stateMutability":"nonpayable"},{"type":"function","name":"campaigns","inputs":[{"name":"","type":"uint256","internalType":"uint256"}],"outputs":[{"name":"id","type":"uint256","internalType":"uint256"},{"name":"creator","type":"address","internalType":"address payable"},{"name":"title","type":"string","internalType":"string"},{"name":"description","type":"string","internalType":"string"},{"name":"goal","type":"uint256","internalType":"uint256"},{"name":"raised","type":"uint256","internalType":"uint256"},{"name":"deadline","type":"uint256","internalType":"uint256"},{"name":"claimed","type":"bool","internalType":"bool"},{"name":"exists","type":"bool","internalType":"bool"}],"stateMutability":"view"},{"type":"function","name":"claimFunds","inputs":[{"name":"_campaignId","type":"uint256","internalType":"uint256"}],"outputs":[],"stateMutability":"nonpayable"},{"type":"function","name":"createCampaign","inputs":[{"name":"_title","type":"string","internalType":"string"},{"name":"_description","type":"string","internalType":"string"},{"name":"_goal","type":"uint256","internalType":"uint256"},{"name":"_durationInDays","type":"uint256","internalType":"uint256"}],"outputs":[{"name":"","type":"uint256","internalType":"uint256"}],"stateMutability":"nonpayable"},{"type":"function","name":"donate","inputs":[{"name":"_campaignId","type":"uint256","internalType":"uint256"}],"outputs":[],"stateMutability":"payable"},{"type":"function","name":"donations","inputs":[{"name":"","type":"uint256","internalType":"uint256"},{"name":"","type":"address","internalType":"address"}],"outputs":[{"name":"","type":"uint256","internalType":"uint256"}],"stateMutability":"view"},{"type":"function","name":"getCampaign","inputs":[{"name":"_campaignId","type":"uint256","internalType":"uint256"}],"outputs":[{"name":"id","type":"uint256","internalType":"uint256"},{"name":"creator","type":"address","internalType":"address"},{"name":"title","type":"string","internalType":"string"},{"name":"description","type":"string","internalType":"string"},{"name":"goal","type":"uint256","internalType":"uint256"},{"name":"raised","type":"uint256","internalType":"uint256"},{"name":"deadline","type":"uint256","internalType":"uint256"},{"name":"claimed","type":"bool","internalType":"bool"}],"stateMutability":"view"},{"type":"function","name":"getDonation","inputs":[{"name":"_campaignId","type":"uint256","internalType":"uint256"},{"name":"_donor","type":"address","internalType":"address"}],"outputs":[{"name":"","type":"uint256","internalType":"uint256"}],"stateMutability":"view"},{"type":"function","name":"owner","inputs":[],"outputs":[{"name":"","type":"address","internalType":"address"}],"stateMutability":"view"},{"type":"function","name":"renounceOwnership","inputs":[],"outputs":[],"stateMutability":"nonpayable"},{"type":"function","name":"transferOwnership","inputs":[{"name":"newOwner","type":"address","internalType":"address"}],"outputs":[],"stateMutability":"nonpayable"},{"type":"event","name":"CampaignCreated","inputs":[{"name":"id","type":"uint256","indexed":true,"internalType":"uint256"},{"name":"creator","type":"address","indexed":true,"internalType":"address"},{"name":"title","type":"string","indexed":false,"internalType":"string"},{"name":"goal","type":"uint256","indexed":false,"internalType":"uint256"},{"name":"deadline","type":"uint256","indexed":false,"internalType":"uint256"}],"anonymous":false},{"type":"event","name":"DonationMade","inputs":[{"name":"campaignId","type":"uint256","indexed":true,"internalType":"uint256"},{"name":"donor","type":"address","indexed":true,"internalType":"address"},{"name":"amount","type":"uint256","indexed":false,"internalType":"uint256"}],"anonymous":false},{"type":"event","name":"FundsClaimed","inputs":[{"name":"campaignId","type":"uint256","indexed":true,"internalType":"uint256"},{"name":"creator","type":"address","indexed":true,"internalType":"address"},{"name":"amount","type":"uint256","indexed":false,"internalType":"uint256"}],"anonymous":false},{"type":"event","name":"OwnershipTransferred","inputs":[{"name":"previousOwner","type":"address","indexed":true,"internalType":"address"},{"name":"newOwner","type":"address","indexed":true,"internalType":"address"}],"anonymous":false},{"type":"error","name":"OwnableInvalidOwner","inputs":[{"name":"owner","type":"address","internalType":"address"}]},{"type":"error","name":"OwnableUnauthorizedAccount","inputs":[{"name":"account","type":"address","internalType":"address"}]},{"type":"error","name":"ReentrancyGuardReentrantCall","inputs":[]}],"bytecode":{"object":"0x608060405234801561000f575f80fd5b5060015f55338061003957604051631e4fbdf760e01b81525f600482015260240160405180910390fd5b61004281610048565b50610099565b600180546001600160a01b038381166001600160a01b0319831681179093556040519116919082907f8be0079c531659141344cd1fd0a4f28419497f9722a3daafe3b4186f6b6457e0905f90a35050565b61124e806100a65f395ff3fe60806040526004361061008f575f3560e01c8063a318f26911610057578063a318f2691461015f578063c2bacfa81461018c578063ee1554a3146101ab578063f14faf6f146101e1578063f2fde38b146101f4575f80fd5b8063141961bc146100935780631b55e338146100d05780635598f8cc146100f1578063715018a6146101245780638da5cb5b14610138575b5f80fd5b34801561009e575f80fd5b506100b26100ad366004610d50565b610213565b6040516100c799989796959493929190610daa565b60405180910390f35b3480156100db575f80fd5b506100ef6100ea366004610d50565b610376565b005b3480156100fc575f80fd5b5061011061010b366004610d50565b61069f565b6040516100c7989796959493929190610e1a565b34801561012f575f80fd5b506100ef6108c4565b348015610143575f80fd5b506001546040516001600160a01b0390911681526020016100c7565b34801561016a575f80fd5b5061017e610179366004610f1f565b6108d7565b6040519081526020016100c7565b348015610197575f80fd5b5061017e6101a6366004610fa9565b610aec565b3480156101b6575f80fd5b5061017e6101c5366004610fa9565b600460209081525f928352604080842090915290825290205481565b6100ef6101ef366004610d50565b610b15565b3480156101ff575f80fd5b506100ef61020e366004610fd3565b610c70565b60036020525f908152604090208054600182015460028301805492936001600160a01b039092169261024490610ff3565b80601f016020809104026020016040519081016040528092919081815260200182805461027090610ff3565b80156102bb5780601f10610292576101008083540402835291602001916102bb565b820191905f5260205f20905b81548152906001019060200180831161029e57829003601f168201915b5050505050908060030180546102d090610ff3565b80601f01602080910402602001604051908101604052809291908181526020018280546102fc90610ff3565b80156103475780601f1061031e57610100808354040283529160200191610347565b820191905f5260205f20905b81548152906001019060200180831161032a57829003601f168201915b505050506004830154600584015460068501546007909501549394919390925060ff8082169161010090041689565b61037e610caa565b5f8181526003602052604090206007810154610100900460ff166103bd5760405162461bcd60e51b81526004016103b49061102b565b60405180910390fd5b60018101546001600160a01b031633146104125760405162461bcd60e51b81526020600482015260166024820152754f6e6c792063726561746f722063616e20636c61696d60501b60448201526064016103b4565b600781015460ff161561045f5760405162461bcd60e51b8152602060048201526015602482015274119d5b991cc8185b1c9958591e4818db185a5b5959605a1b60448201526064016103b4565b80600601544210156104b35760405162461bcd60e51b815260206004820152601a60248201527f43616d706169676e20686173206e6f7420656e6465642079657400000000000060448201526064016103b4565b60078101805460ff191660011790556005808201545f916064916104d79190611076565b6104e1919061108d565b90505f8183600501546104f491906110ac565b90505f6105096001546001600160a01b031690565b6001600160a01b0316836040515f6040518083038185875af1925050503d805f8114610550576040519150601f19603f3d011682016040523d82523d5f602084013e610555565b606091505b50509050806105a65760405162461bcd60e51b815260206004820152601c60248201527f506c6174666f726d20666565207472616e73666572206661696c65640000000060448201526064016103b4565b60018401546040515f916001600160a01b03169084908381818185875af1925050503d805f81146105f2576040519150601f19603f3d011682016040523d82523d5f602084013e6105f7565b606091505b50509050806106485760405162461bcd60e51b815260206004820152601760248201527f43726561746f72207472616e73666572206661696c656400000000000000000060448201526064016103b4565b60018501546040518481526001600160a01b039091169087907fa4eb50103b0591feb0bc913f479d92af5eb7ea33e8c397b49bab52ce6af26cb59060200160405180910390a3505050505061069c60015f55565b50565b5f806060805f805f805f60035f8b81526020019081526020015f20604051806101200160405290815f8201548152602001600182015f9054906101000a90046001600160a01b03166001600160a01b03166001600160a01b0316815260200160028201805461070d90610ff3565b80601f016020809104026020016040519081016040528092919081815260200182805461073990610ff3565b80156107845780601f1061075b57610100808354040283529160200191610784565b820191905f5260205f20905b81548152906001019060200180831161076757829003601f168201915b5050505050815260200160038201805461079d90610ff3565b80601f01602080910402602001604051908101604052809291908181526020018280546107c990610ff3565b80156108145780601f106107eb57610100808354040283529160200191610814565b820191905f5260205f20905b8154815290600101906020018083116107f757829003601f168201915b505050918352505060048201546020820152600582015460408201526006820154606082015260079091015460ff808216151560808401526101009182900416151560a0909201919091528101519091506108815760405162461bcd60e51b81526004016103b49061102b565b805f015181602001518260400151836060015184608001518560a001518660c001518760e001519850985098509850985098509850985050919395975091939597565b6108cc610cd2565b6108d55f610cff565b565b5f8083116109275760405162461bcd60e51b815260206004820152601b60248201527f476f616c206d7573742062652067726561746572207468616e2030000000000060448201526064016103b4565b5f82118015610938575061016d8211155b6109775760405162461bcd60e51b815260206004820152601060248201526f24b73b30b634b210323ab930ba34b7b760811b60448201526064016103b4565b60028054905f610986836110bf565b909155505f905061099a8362015180611076565b6109a490426110d7565b6040805161012081018252600280548083523360208085019182528486018d8152606086018d9052608086018c90525f60a0870181905260c0870189905260e0870181905260016101008801819052948152600390925295902084518155905191810180546001600160a01b0319166001600160a01b03909316929092179091559251939450909290820190610a3a9082611138565b5060608201516003820190610a4f9082611138565b506080820151600482015560a0820151600582015560c0820151600682015560e0820151600790910180546101009384015161ffff1990911692151561ff001916929092179115159092021790556002546040513391907fdc26653af5b99b2da33e2ad69ee6600d9aeccc82b034501db4338309615ca23890610ad7908a90899087906111f4565b60405180910390a35050600254949350505050565b5f8281526004602090815260408083206001600160a01b03851684529091529020545b92915050565b610b1d610caa565b5f8181526003602052604090206007810154610100900460ff16610b535760405162461bcd60e51b81526004016103b49061102b565b80600601544210610b9b5760405162461bcd60e51b815260206004820152601260248201527110d85b5c185a59db881a185cc8195b99195960721b60448201526064016103b4565b5f3411610bea5760405162461bcd60e51b815260206004820152601f60248201527f446f6e6174696f6e206d7573742062652067726561746572207468616e20300060448201526064016103b4565b34816005015f828254610bfd91906110d7565b90915550505f82815260046020908152604080832033845290915281208054349290610c2a9084906110d7565b9091555050604051348152339083907fe555da28bdb778f65d22794d88927ebaeca03f7de9d1b7d39245bc8fb5ca078a9060200160405180910390a35061069c60015f55565b610c78610cd2565b6001600160a01b038116610ca157604051631e4fbdf760e01b81525f60048201526024016103b4565b61069c81610cff565b60025f5403610ccc57604051633ee5aeb560e01b815260040160405180910390fd5b60025f55565b6001546001600160a01b031633146108d55760405163118cdaa760e01b81523360048201526024016103b4565b600180546001600160a01b038381166001600160a01b0319831681179093556040519116919082907f8be0079c531659141344cd1fd0a4f28419497f9722a3daafe3b4186f6b6457e0905f90a35050565b5f60208284031215610d60575f80fd5b5035919050565b5f81518084525f5b81811015610d8b57602081850181015186830182015201610d6f565b505f602082860101526020601f19601f83011685010191505092915050565b8981526001600160a01b0389166020820152610120604082018190525f90610dd48382018b610d67565b90508281036060840152610de8818a610d67565b6080840198909852505060a081019490945260c0840192909252151560e0830152151561010090910152949350505050565b8881526001600160a01b0388166020820152610100604082018190525f90610e448382018a610d67565b90508281036060840152610e588189610d67565b9150508560808301528460a08301528360c083015282151560e08301529998505050505050505050565b634e487b7160e01b5f52604160045260245ffd5b5f82601f830112610ea5575f80fd5b813567ffffffffffffffff80821115610ec057610ec0610e82565b604051601f8301601f19908116603f01168101908282118183101715610ee857610ee8610e82565b81604052838152866020858801011115610f00575f80fd5b836020870160208301375f602085830101528094505050505092915050565b5f805f8060808587031215610f32575f80fd5b843567ffffffffffffffff80821115610f49575f80fd5b610f5588838901610e96565b95506020870135915080821115610f6a575f80fd5b50610f7787828801610e96565b949794965050505060408301359260600135919050565b80356001600160a01b0381168114610fa4575f80fd5b919050565b5f8060408385031215610fba575f80fd5b82359150610fca60208401610f8e565b90509250929050565b5f60208284031215610fe3575f80fd5b610fec82610f8e565b9392505050565b600181811c9082168061100757607f821691505b60208210810361102557634e487b7160e01b5f52602260045260245ffd5b50919050565b60208082526017908201527f43616d706169676e20646f6573206e6f74206578697374000000000000000000604082015260600190565b634e487b7160e01b5f52601160045260245ffd5b8082028115828204841417610b0f57610b0f611062565b5f826110a757634e487b7160e01b5f52601260045260245ffd5b500490565b81810381811115610b0f57610b0f611062565b5f600182016110d0576110d0611062565b5060010190565b80820180821115610b0f57610b0f611062565b601f821115611133575f81815260208120601f850160051c810160208610156111105750805b601f850160051c820191505b8181101561112f5782815560010161111c565b5050505b505050565b815167ffffffffffffffff81111561115257611152610e82565b611166816111608454610ff3565b846110ea565b602080601f831160018114611199575f84156111825750858301515b5f19600386901b1c1916600185901b17855561112f565b5f85815260208120601f198616915b828110156111c7578886015182559484019460019091019084016111a8565b50858210156111e457878501515f19600388901b60f8161c191681555b5050505050600190811b01905550565b606081525f6112066060830186610d67565b6020830194909452506040015291905056fea26469706673582212205642938bee1cfbdc35c6343f282885ecb92579a430223dca40fbacdddbac556264736f6c63430008140033","linkReferences":{}},"methodIdentifiers":{"campaigns(uint256)":"141961bc","claimFunds(uint256)":"1b55e338","createCampaign(string,string,uint256,uint256)":"a318f269","donate(uint256)":"f14faf6f","donations(uint256,address)":"ee1554a3","getCampaign(uint256)":"5598f8cc","getDonation(uint256,address)":"c2bacfa8","owner()":"8da5cb5b","renounceOwnership()":"715018a6","transferOwnership(address)":"f2fde38b"},"id":23}